:020000040800F2
:10000000680600206D0100087501000877010008EE
:10001000790100087B0100087D0100080000000054
:100020000000000000000000000000007F01000848
:10003000810100080000000083010008850100081C
:100040008701000887010008870100088701000870
:100050008701000887010008870100088701000860
:100060008701000887010008870100088701000850
:100070008701000887010008870100088701000840
:100080008701000887010008870100088701000830
:100090008701000887010008870100088701000820
:1000A0008701000887010008870100088701000810
:1000B000A5080008870100088701000887010008DB
:1000C00087010008870100088701000887010008F0
:1000D00087010008870100088701000887010008E0
:1000E00087010008870100088701000800F002F876
:1000F00000F02CF80AA090E8000C82448344AAF196
:100100000107DA4501D100F021F8AFF2090EBAE893
:100110000F0013F0010F18BFFB1A43F0010318473B
:10012000E4080000F4080000002300240025002655
:10013000103A28BF78C1FBD8520728BF30C148BF4A
:100140000B6070471FB51FBD10B510BD00F031F832
:100150001146FFF7F7FF00F02FFC00F04FF803B453
:10016000FFF7F2FF03BC00F057F800000948804792
:1001700009480047FEE7FEE7FEE7FEE7FEE7FEE789
:10018000FEE7FEE7FEE7FEE704480549054A064BA1
:1001900070470000B5070008ED0000086800002067
:1001A000680600206802002068020020704770473F
:1001B0007047754600F02CF8AE4605006946534678
:1001C00020F00700854618B020B5FFF7DDFFBDE839
:1001D00020404FF000064FF000074FF000084FF0AE
:1001E000000BAC46ACE8C009ACE8C009ACE8C009FB
:1001F000ACE8C00921F007018D46704710B50446F0
:10020000AFF300802046BDE81040FFF7A8BF000014
:10021000004870470000002001491820ABBEFEE7EF
:10022000260002007047000003490A680B689B1A09
:100230008342FBD3704700BF600000202DE9F043EC
:1002400091F8039009F00F085FEAC96344BF8B7807
:1002500048EA030809880B0621D0046800254FF0FE
:10026000010E4FF00F0C0027082F17D00EFA07F3DE
:100270000B4210D00CFA05F208FA05F624EA020245
:1002800042EA0604B9F1480F04D0B9F1280F08BFBB
:10029000436100E0036104350137E5E70460B1F52F
:1002A000807F23D3446800254FF4807E4FF00F0CED
:1002B0000027082F19D00EFA07F606EA0102B2420B
:1002C00010D10CFA05F308FA05F224EA030343EA15
:1002D0000204B9F1480F04D0B9F1280F08BF4661F4
:1002E00000E0066104350137E3E74460BDE8F083D0
:1002F00041617047016170471CB50820012100F081
:100300001BF80648EB4C019001A92046FFF796FF29
:1003100020464FF48051FFF7EDFF1CBD0010031085
:10032000044A002911680CBF21EA0000084310604C
:10033000704700BF1C100240044A002911680CBF1E
:1003400021EA000008431060704700BF1810024007
:1003500080B5142000F0CEF800F00301032908BF97
:1003600080BD40F003011420BDE8804000F0FEB8DD
:10037000B0B586B004460D20002100F083F942F2AA
:100380009300ADF807000DF117000DF1070500907F
:100390000C20294602222B4600F0F4F801280ED149
:1003A00000200021042804D02A5C2254514001304E
:1003B000F8E79DF80B00081AB0FA80F0400906B083
:1003C000B0BDB0B50C46054600F094F820EA040133
:1003D0002846BDE8B04000F055B900007CB50020CB
:1003E0000DF101010022052A02D088540132FAE7FA
:1003F0000DF10601262000F097F8012829D115A05B
:1004000000F0CEFA9DF8060000F0B2FA9DF8070061
:1004100000F0AEFA154C204600F0C2FA0DF10105CD
:100420002846FFF7A5FF01280DD116A000F0B8FA65
:100430000026042E08D0A85D00F09AFA202000F0D3
:1004400091FA0136F5E70AA4204600F0A9FA00F077
:100450001FF87CBD436172642064657465637465D4
:10046000642120547970653A20000000000A0008D9
:10047000416E7469636F6C6C206572726F720D0AE5
:100480000000000043617264205549443A20000096
:10049000F8B5502003900DF10B0003A900900C203B
:1004A00004220B4600F06EF88FBD000010B500F07E
:1004B0000DF9FFF721FF0E4C01200F21A0472A2044
:1004C0008D21A0472B203E21A0472D201E21A04793
:1004D0002C200021A04726207021A0471520402174
:1004E000A04711203D21A047BDE81040FFF730BFD5
:1004F00085060008B0B56F4C054620464FF4805184
:10050000FFF7F6FE802040EA4500C0B200F038F95F
:10051000002000F035F9054620464FF48051FFF7E2
:10052000E9FE2846B0BD00BFB0B586B00C46054612
:100530000D20072100F0A6F80DF117000DF10701BD
:1005400000900C2001220B468DF8075000F01AF89D
:1005500001460020012907D19DF81710102903D169
:10056000BDF807002080012006B0B0BDB0B50C4634
:100570000546FFF7BFFF40EA04012846BDE8B0404A
:1005800000F080B82DE9F0479A4616460F4605461A
:100590000C2805D00E2D07D111244FF0120906E0CA
:1005A00031244FF0770902E001244FF00009DDF813
:1005B000208009F18001022000F064F804208021ED
:1005C000FFF7FFFE0A208021FFF7D0FF0120002166
:1005D00000F058F836B117F8011B092000F052F866
:1005E000013EF7E70120294600F04CF80C2D03D11D
:1005F0000D208021FFF7BAFF214F0420FFF77AFF7B
:10060000013734D206460442F7D00D208021FFF78F
:10061000D8FE0620FFF76EFF10F01B0F2BD109EA62
:100620000600012121EA00060C2D25D10A20FFF742
:1006300061FF05460C20FFF75DFF10F0070040EA60
:10064000C500A0F1080008BFE80088F80000002DF0
:1006500008BF01250024102D28BF1025AC420BD265
:100660000920FFF747FF0AF804000134F6E70D20E0
:100670008021FFF7A6FE00263046BDE8F08700BFC8
:1006800030F8FFFF70B50B4E0C46054630464FF470
:100690008051FFF72DFE7E2000EA450000F070F843
:1006A000204600F06DF830464FF48051BDE87040B0
:1006B000FFF720BE000C01400288002942F04003F1
:1006C00008BF22F0400303807047000070B586B079
:1006D0004FF480400121FFF723FE08200121FFF79E
:1006E0002BFE334C124804F5544505AE05902846C0
:1006F0003146FFF7A3FD0F48314605902846FFF726
:100700009DFD0720ADF81000182003904FF00070F9
:100710000290002001904FF08270009069462046C0
:1007200000F013F820460121FFF7C6FF06B070BDA8
:1007300000A00318004003040089084018BF0120EE
:10074000704780897047818170470A88038803F465
:1007500041531A434B881A438B881A43CB881A4358
:100760000B891A434B891A438B891A43CB891A4345
:100770000280828B22F400628283098A01827047A0
:10078000B0B50B4C054620460221FFF7D5FF0028E7
:10079000F9D020462946FFF7D6FF20460121FFF772
:1007A000CBFF0028F9D02046FFF7CBFFC0B2B0BD89
:1007B0000038004082B03648364A016841F00101F5
:1007C00001604168114041600168334A1140016095
:1007D000016821F480210160416821F4FE0141603B
:1007E0004FF41F018160002101910091016841F4E3
:1007F00080310160016801F40031009101990131FB
:100800000191009919B90199B1F5A06FF2D1016870
:10081000890354BF0021012100910099012930D1A1
:100820001E490A6842F010020A600A6822F00702B4
:100830000A600A6842F002020A6041684160416849
:100840004160416841F480614160416821F47C115C
:100850004160416841F4E8114160016841F08071F4
:10086000016001688901FCD5416821F00301416004
:10087000416841F002014160416801F00C01082922
:10088000FAD107484FF00061016002B0704700BF25
:10089000001002400000FFF8FFFFF6FE00200240BB
:1008A00008ED00E006480188C90707D0018821F05B
:1008B000010101800348016801310160704700BFF8
:1008C00010000040600000200E48016841F0010166
:1008D00001600D484721818340F2E731018401889E
:1008E00041F0010101804FF08040018841F0010199
:1008F00001800648102180F81C134FF080510160E0
:10090000704700BF1C1002400C00004000E100E0F6
:10091000104944F204030A681A430A600E490A683F
:1009200022F0F0020A600A6842F0B0020A600A6827
:1009300022F470620A600A6842F480620A60074921
:1009400042F22C02B1FBF0F0054908808888104380
:1009500088807047181002400408014000A24A0431
:100960000838014013490A881206FCD58880704770
:1009700010B504460009303037219F2C88BF01EBA9
:100980001410FFF7EFFF04F00F0101F13000092907
:1009900088BF01F13700BDE81040FFF7E3BF00005A
:1009A000044902782AB10B881B06FCD58A800130E5
:1009B000F7E7704700380140FFF786FF4FF4165005
:1009C000FFF7A6FFC820FFF72FFCFFF76FFD05A07C
:1009D000FFF7E6FFFFF702FD4FF47A70FFF724FC04
:1009E000F8E700BF524649442052656164657220B1
:1009F000496E697469616C697A65640D0A0000006A
:100A00000D0A0000140A000800000020680600001B
:040A100028010008B1
:04000005080000ED02
:00000001FF
