:020000040800F2
:100000007806002091010008990100089B01000872
:100010009D0100089F010008A101000800000000E8
:10002000000000000000000000000000A301000824
:10003000A501000800000000A7010008A9010008B0
:10004000AB010008AB010008AB010008AB010008E0
:10005000AB010008AB010008AB010008AB010008D0
:10006000AB010008AB010008AB010008AB010008C0
:10007000AB010008AB010008AB010008AB010008B0
:10008000AB010008AB010008AB010008AB010008A0
:10009000AB010008AB010008AB010008AB01000890
:1000A000AB010008AB010008AB010008AB01000880
:1000B000150B0008AB010008AB010008AB010008FC
:1000C000AB010008AB010008AB010008AB01000860
:1000D000AB010008110D0008AB010008AB010008DE
:1000E000AB010008AB010008AB01000800F002F80A
:1000F00000F03FF80AA090E8000C82448344AAF183
:100100000107DA4501D100F034F8AFF2090EBAE880
:100110000F0013F0010F18BFFB1A43F0010318473B
:10012000AC0E0000CC0E0000103A24BF78C878C195
:10013000FAD8520724BF30C830C144BF04680C60ED
:10014000704700000023002400250026103A28BF35
:1001500078C1FBD8520728BF30C148BF0B60704739
:10016000642900F07D80002070471FB51FBD10B5C9
:1001700010BD00F02AF91146FFF7F7FF00F0FAFE74
:1001800000F048F903B4FFF7F2FF03BC00F050F9A8
:100190000948804709480047FEE7FEE7FEE7FEE71B
:1001A000FEE7FEE7FEE7FEE7FEE7FEE70448054957
:1001B000054A064B70470000B50A0008ED0000082C
:1001C00078000020780600207802002078020020C5
:1001D0000FB41CB5074B06AA7B44694600900598EE
:1001E00000F0DBF80020694600F0EAF81CBC5DF87E
:1001F00014FB0000E50100002DE9F0410E46044625
:10020000002020622046E168884730B3252805D0C9
:10021000D4E901219047206A401CF2E7E1682046BA
:1002200000278847050018D0A5F14100192802D8F9
:1002300020354FF400673246294620462760FFF7F5
:100240008FFF40B1012804D0F61D26F007060836BE
:10025000D8E7361DD6E72846DAE7206ABDE8F08100
:100260002DE9F0410646002410687529314616A58F
:1002700010D0AFF30080002802DA404213A507E057
:1002800031688A0701D512A502E0490704D511A5F6
:10029000012401E0AFF3008000210A2206F12407C7
:1002A00009E0B0FBF2FCB0FBF2F302FB1C003030C3
:1002B00078541846491C0028F3D123462A46304674
:1002C000BDE8F04100F00BB8000000002D00000078
:1002D0002B000000200000007047704770472DE998
:1002E000F0470D4699469246044600F124080168FD
:1002F000880604D5E06921F01001216000E00120AA
:10030000A84201DD471B00E00027A1697A1902EB32
:100310000900081AA0612078C00602D42046AFF375
:100320000080002608E0D4E901211AF80600904771
:10033000206A401C761C20624E45F4DB2078C00603
:100340000AD52046AFF3008006E0D4E90121302031
:100350009047206A401C2062381EA7F10107F4DC98
:1003600007E0D4E9012118F805009047206A401CF5
:100370002062281EA5F10105F3DC2046AFF30080C2
:100380002078000602D50220BDE8F0870120FBE7B7
:1003900001694A1C02610878704700B58FB0CDE949
:1003A00001310021059105497944CDE90310114639
:1003B0006846FFF721FF0FB000BD0000E5FFFFFF1B
:1003C0000A6802F8010B0A607047754600F02CF8C5
:1003D000AE4605006946534620F00700854618B032
:1003E00020B5FFF7E3FEBDE820404FF000064FF0D8
:1003F00000074FF000084FF0000B21F00701AC465A
:10040000ACE8C009ACE8C009ACE8C009ACE8C00978
:100410008D46704710B50446AFF300802046BDE816
:100420001040FFF7AFBE00000048704718000020E2
:1004300001491820ABBEFEE72600020070471FB539
:100440000121084600F038FA40F2E730ADF8080024
:100450004720ADF804000020ADF80A00ADF8060012
:1004600001A94FF0804000F095FB01221146900752
:1004700000F086FB1C208DF8000000208DF80100A4
:1004800001208DF802008DF80300684600F0DCF9C9
:100490000121880700F057FB1FBD000003490860D9
:1004A00000BF024909680029FBD170470000002005
:1004B0002DE9F041024600250026002000230024FB
:1004C000002791F803C00CF00F0591F803C00CF061
:1004D000100CBCF1000F03D091F802C04CEA0505E6
:1004E00091F800C0BCF1000F31D0146800202BE05F
:1004F0004FF0010C0CFA00F3B1F800C00CEA03064F
:100500009E4220D183004FF00F0C0CFA03F7BC433E
:1005100005FA03FC4CEA040491F803C0BCF1280F6F
:1005200006D14FF0010C0CFA00FCC2F814C00AE02E
:1005300091F803C0BCF1480F05D14FF0010C0CFA43
:1005400000FCC2F810C0401C0828D1D31460B1F8D8
:1005500000C0BCF1FF0F34DD546800202EE000F134
:10056000080C4FF0010808FA0CF3B1F800C00CEACF
:1005700003069E4221D183004FF00F0C0CFA03F7C3
:10058000BC4305FA03FC4CEA040491F803C0BCF137
:10059000280F05D100F1080C08FA0CF8C2F81480F5
:1005A00091F803C0BCF1480F07D100F1080C4FF0DF
:1005B000010808FA0CF8C2F81080401C0828CED3B5
:1005C0005460BDE8F08170B5024600240025002388
:1005D0000020958A138B1B0445EA030626F07F440E
:1005E00004EA01068E4201D1012000E0002070BD26
:1005F00021B1028842F00102028004E002884FF635
:10060000FE731A400280704721B1028842F4807262
:10061000028004E002884FF6FF631A4002807047B0
:1006200021B1028842F40072028004E002884FF691
:10063000FF531A40028070472DE9F04385B004460D
:100640000D460026B1460427DFF8CC80A6884FF679
:10065000C0700640684600F04FF9DDF808802F486A
:10066000B8FBF0F01FFA80F946EA0906A680208858
:100670004FF6FE71084020800026294928688842EC
:100680000CD828684000B8FBF0F087B2042F00DADD
:1006900004273E4309F10100208427E0E8884BF657
:1006A000FF71884206D1286800EB4000B8FBF0F0EB
:1006B00087B209E0286800EBC00101EB0010B8FB2D
:1006C000F0F087B247F48047C7F30B0008B947F052
:1006D000010747F4004006434FF4967009FB00F011
:1006E0004FF47A7190FBF1F0401C2084A68320889F
:1006F00040F00100208026884FF6F5300640A8889B
:100700006989084306432680A889298908432081EE
:1007100005B0BDE8F083000000127A0040420F00EF
:10072000A086010010B500BF04490548FFF74BFF44
:100730000028F9D0024800F028F810BD400003005E
:100740000054004008B500F059F80021462000F0A0
:1007500021F8102000F040F800F062F800F04EF8A8
:100760000121462000F016F8FFF7DCFF8DF80000AD
:10077000FFF7D8FF8DF8010000F052F89DF8010056
:100780009DF8001040EA012008BD0146088AC0B269
:100790007047000070B504460D4615B924F00104F9
:1007A00001E044F001042A462146084800F040F8E0
:1007B00000BF07490548FFF706FF28B90549034868
:1007C000FFF701FF0028F4D070BD00000054004086
:1007D000020003008200070010B5044621460548C8
:1007E00000F02FF800BF04490248FFF7ECFE002894
:1007F000F9D010BD005400408000070010B5012161
:100800000548FFF701FF00BF04490348FFF7DBFE7F
:100810000028F9D010BD0000005400400100030082
:1008200010B501210148FFF7FBFE10BD0054004048
:1008300012B141F0010102E04FF6FE73194001824E
:10084000704701827047000070B5002100230F221D
:10085000C47804B3154C246804F4E064C4F5E0647F
:10086000210AC1F10403CA40447804FA03F18478F0
:100870001440214309010E4C0678A155047804F078
:100880001F050124AC4005786D11AD0005F1E02590
:10089000C5F8004109E0047804F01F050124AC40CC
:1008A000044D0678761145F8264070BD0CED00E049
:1008B00000E400E080E100E029B1064AD269024389
:1008C000044BDA6104E0034AD2698243014BDA61E6
:1008D000704700000010024029B1064A92690243A5
:1008E000044B9A6104E0034A92698243014B9A6186
:1008F000704700000010024030B5002100220024A3
:1009000000232D4D6D6805F00C0121B1042905D09F
:10091000082923D105E0294D056022E0274D056017
:100920001FE0254D6D6805F47012234D6D6805F4C8
:100930008034022505EB92421CB9214D55430560D8
:100940000BE01D4D6D6805F400351DB11C4D554380
:10095000056002E0194D5543056002E0174D056042
:1009600000BF00BF144D6D6805F0F0010909154D79
:100970006B5C0568DD4045600F4D6D6805F4E06116
:10098000090A104D6B5C4568DD4085600A4D6D6855
:1009900005F46051C90A0B4D6B5C4568DD40C560CC
:1009A000054D6D6805F44041890B074D6B5CC568CA
:1009B000B5FBF3F5056130BD0010024000127A006E
:1009C00000093D00040000201400002010B500F0D4
:1009D00001F810BD0CB5002001900090334800686C
:1009E00040F480303149086000BF3048006800F4AE
:1009F000003000900198401C0190009818B90198AF
:100A0000B0F5A06FF1D12948006800F4003010B1B2
:100A10000120009001E0002000900098012843D1BF
:100A20002348006840F0100021490860084600682B
:100A300020F0070008600846006840F002000860E7
:100A40001A484068194948600846406848600846A6
:100A5000406840F4806048600846406820F47C109C
:100A600048600846406840F4E8104860084600685E
:100A700040F08070086000BF0C48006800F0007013
:100A80000028F9D00948406820F003000749486071
:100A90000846406840F00200486000BF03484068D4
:100AA00000F00C000828F9D10CBD00000010024035
:100AB0000020024010B51348006840F001001149C1
:100AC000086008464068104908400E4948600846DA
:100AD00000680E4908400B4908600846006820F489
:100AE000802008600846406820F4FE0048604FF40B
:100AF0001F008860FFF76AFF4FF00060044908603C
:100B000010BD0000001002400000FFF8FFFFF6FEDD
:100B100008ED00E010B50121880700F020F858B179
:100B20000121880700F00CF80448006820B1034850
:100B30000068401E0149086010BD00000000002050
:100B4000CA430282704721B1028842F0010202804A
:100B500004E002884FF6FE731A400280704730B5F9
:100B60000246002000230024158A05EA0103958926
:100B700005EA010413B10CB1012000E0002030BDF2
:100B80001AB183890B43838102E083898B4383817C
:100B900070470000002202881D4B98420ED01D4B6A
:100BA00098420BD0B0F1804F08D01B4B984205D033
:100BB0001A4B984202D01A4B984204D14FF68F73C9
:100BC0001A404B881A43174B984207D0164B98424D
:100BD00004D04FF6FF431A40CB881A4302808B881B
:100BE00083850B8803850A4B98420BD0094B9842AA
:100BF00008D00E4B984205D00D4B984202D00D4BB9
:100C0000984201D10B7A038601238382704700004A
:100C1000002C014000340140000400400008004066
:100C2000000C004000100040001400400040014053
:100C3000004401400048014010B586B0044601213F
:100C400044F20400FFF748FE4FF40070ADF81400C2
:100C500018208DF8170003208DF8160005A91C48F0
:100C6000FFF726FC4FF48060ADF8140048208DF8A3
:100C7000170005A91648FFF71BFC01940020ADF8EA
:100C80000800ADF80A00ADF80C00ADF810000C201B
:100C9000ADF80E0001A90F4800F0C2F8012240F2A1
:100CA00025510C4800F096F825208DF80000002012
:100CB0008DF801008DF8020001208DF803006846D0
:100CC000FFF7C2FD0121034800F041F806B010BD56
:100CD000000801400038014010B5044600BF8021E3
:100CE000044800F040F80028F9D02146014800F0FF
:100CF00003F910BD0038014010B5044603E014F8B4
:100D0000010BFFF7E9FF20780028F8D110BD0000A3
:100D100010B540F22551054800F032F820B140F2FC
:100D20002551024800F004F810BD000000380140D1
:100D300010B50022002340F66A14A14200D100BF82
:100D40000A1201249440A3B2DC43048010BD21B1F7
:100D5000828942F40052828104E082894DF6FF7359
:100D60001A408281704702460020B1F5007F00D111
:100D700000BF13880B400BB1012000E0002070473A
:100D800070B50246002400230025002040F66A16B4
:100D9000B14200D100BFC1F3421501F01F0301268B
:100DA00006FA03F3012D02D19689334006E0022DA5
:100DB00002D1168A334001E0968A33400C12012694
:100DC00006FA04F41688344013B10CB1012000E097
:100DD000002070BDF0B50346002400260025002049
:100DE00040F66A17B94200D100BF1846C1F3421459
:100DF00001F01F06012707FA06F5012C01D10C307E
:100E000004E0022C01D1103000E014301AB1076860
:100E10002F43076002E00768AF430760F0BD0000A2
:100E20002DE9F04786B005460E460024A24600BFD5
:100E3000A1460027B08900B100BF2F462C8A4CF68E
:100E4000FF700440F08804432C82AC894EF6F31006
:100E50000440B08831890843718908430443AC8158
:100E6000AC8A4FF6FF400440B0890443AC8201A82D
:100E7000FFF742FD1F48874202D1DDF810A001E0D4
:100E8000DDF80CA0A88900F4004040B10AEBCA00CC
:100E900000EB0A1031684900B0FBF1F807E00AEBFB
:100EA000CA0000EB0A1031688900B0FBF1F8642039
:100EB000B8FBF0F004012009642101FB1089A88926
:100EC00000F4004040B1322000EBC900B0FBF1F06B
:100ED00000F00700044308E0322000EB0910642111
:100EE000B0FBF1F000F00F0004432C8106B0BDE828
:100EF000F087000000380140C1F30802828070478B
:100F000000B585B001214805FFF7D6FC0121082076
:100F1000FFF7E2FCC020ADF810001C208DF8130094
:100F200003208DF8120004A90F48FFF7C1FA002032
:100F3000ADF804004FF48060ADF80A000001ADF890
:100F40000C000A4800904BF6FF70ADF80600002038
:100F5000ADF8080069460648FFF76EFB012104481A
:100F6000FFF746FB05B000BD000C0140A086010064
:100F7000005400408EB0FFF762FA4FF41650FFF7AE
:100F80005BFEFFF7BDFF0FE0FFF7DCFB04462246E8
:100F900006A101A8FFF71CF901A8FFF7ADFE4FF469
:100FA0007A70FFF77BFA00BFEEE7000043756F6EC3
:100FB0006720646F20616E682073616E67206C61CA
:100FC0003A202564206C75780A000000EC0F0008B8
:100FD000000000201800000028010008041000088C
:100FE0001800002060060000440100080000000016
:100FF00000000000010203040102030406070809BF
:0410000002040608D8
:04000005080000ED02
:00000001FF
